:100000000C94DB000C94FA130C94D3130C94AC13E3
:100010000C9485130C9403010C9403010C945E134F
:100020000C9403010C9403010C9473100C94E210D3
:100030000C9403010C9403010C9403010C94030130
:100040000C9403010C9403010C9403010C94030120
:100050000C9403010C9403010C9403010C941413ED
:100060000C9403010C9403010C9403010C94030100
:100070000C9403010C9403010C9403010C940301F0
:100080000C9403010C9403010C9403010C940301E0
:100090000C9421140C9403010C9403010C9403019F
:1000A0000C9403010C9403010C940301070605044E
:1000B0000100080A0B0C0D090000000024002700B5
:1000C0002A002D00300000000000250028002B0031
:1000D0002E003100000000002300260029002C0023
:1000E0002F000404040404030405020202020403B2
:1000F00002020202060606060606040402020204C2
:100100000404080201104080401020408040800814
:100110000204018040201002011080102040402085
:10012000080B0002020200000904000001020200A4
:100130000005240010010524010101042402060524
:100140002406000107058103100040090401000294
:100150000A00000007050202400000070583024074
:1001600000000403090412010002EF0201404123D0
:10017000368000010102030141726475696E6F20CF
:100180004C4C430041726475696E6F204C656F6E14
:100190006172646F000000000200090F0000030498
:1001A00001000C0000000000000000000000000042
:1001B00000000000691511241FBECFEFDAE0DEBF9A
:1001C000CDBF12E0A0E0B1E0EAE6FEE302C0059098
:1001D0000D92AE34B107D9F724E0AEE4B2E001C02D
:1001E0001D92A73FB207E1F710E0CBEDD0E004C0CD
:1001F0002197FE010E94271DCA3DD107C9F70E9421
:10020000D4170C94331F0C940000CF92DF92EF921E
:10021000FF920F931F93CF93DF93D901E8016A01F7
:10022000F9014217530714F06901FA01882309F410
:1002300040C0CB016C157D050CF4C6019F018E17E3
:100240009F070CF49C01A417B50734F4CF01821B5F
:10025000930B9C012C0D3D1D0D2C000CEE08FF088E
:10026000032E000C440B550B2C193D094E095F0958
:10027000AEEFBFEF0E94A01C9F01FF0F440B550B78
:100280002C193D094E095F090E94811CDA01C90140
:100290008F5F9F47A109B1098883998382E090E02D
:1002A000DF91CF911F910F91FF90EF90DF90CF9052
:1002B000089590E080E0F4CFFC0181E090E0A0E0C0
:1002C000B0E004C0880F991FAA1FBB1F6A95D2F720
:1002D000482F409531893423318B3389382B338B28
:1002E00025892423258B2489822B848B0895FC0166
:1002F00080911D03882311F13FB7F89482E0809329
:10030000E9002091F200822F90E01816190614F4EB
:1003100081E090E0882339F0289844E640931C035C
:100320004091F1004083222339F02091F200211105
:1003300003C02BE62093E8003FBF08958FEF9FEFA7
:1003400008954091EA025091EB022091E802309129
:10035000E90242175307B4F49091E8009570E1F375
:100360009091E80092FD19C08093F1008091EA021B
:100370009091EB0201968F739927892B19F48EEFD8
:100380008093E8008091EA029091EB0201969093AD
:10039000EB028093EA0281E0089580E00895EF92F5
:1003A000FF920F931F93CF93DF93F82E192FE62E12
:1003B000042F81E0860F880F0E94A10183E00E9434
:1003C000A101CF2DD12FEC0EFD2EF11CCE15DF0596
:1003D000B9F007FF13C0FE0184910E94A101182FFC
:1003E00080E00E94A101812321968111EFCFDF914E
:1003F000CF911F910F91FF90EF9008958881EDCFDD
:1004000081E0F5CFDF92EF92FF920F931F93CF938E
:10041000DF93D82E8A01EB017B01E40EF51ECE1589
:10042000DF0559F0D7FE12C0FE0184910E94A101A0
:1004300021968111F4CF0FEF1FEFC801DF91CF910B
:100440001F910F91FF90EF90DF9008958881EECF7C
:100450002FB7F89487708093E9009091E800892F76
:10046000807295FF04C09091F20080E4891B2FBF39
:100470000895615030F02091F100FC012083019635
:10048000F8CF289884E680931C0308958091E002B9
:1004900081110DC082E08093DC0284E08093DD0254
:1004A0001092DF021092DE0281E08093E0028CED78
:1004B00092E008950F931F93CF93DF931F92CDB7D0
:1004C000DEB782E0898342E450E060E271E080E8D8
:1004D0000E9402020E944602DC0112960D911C91BC
:1004E0000115110589F0D801ED91FC910280F3818D
:1004F000E02DBE016F5F7F4FC801099597FD04C0D5
:10050000F80100851185ECCF89810F90DF91CF91A3
:100510001F910F910895CF93DF931F92CDB7DEB750
:100520006983DC01ED91FC910280F381E02D41E0D3
:1005300050E0BE016F5F7F4F09950F90DF91CF9123
:10054000089583E08093E9008091F200882319F0F8
:100550008AE38093E800089583E00E94280290E0F7
:100560000895CF93DF931F92CDB7DEB7FC0184854A
:10057000958597FD08C02FEF3FEF358724870F90B3
:10058000DF91CF910895CE0101960E9477010197E6
:1005900019F4898190E0F3CF8FEF9FEFF0CF0F93A5
:1005A0001F93CF93DF931F92CDB7DEB78C01FC0171
:1005B0008485958597FF0BC0CE0101960E94770137
:1005C000019771F4898190E0F80195878487F8019B
:1005D000848595850F90DF91CF911F910F9108959C
:1005E0008FEF9FEFF1CFFC018485958597FD0BC0C0
:1005F0009FB7F89482E08093E9008091F2009FBF5A
:1006000090E0019608959FB7F89482E08093E90006
:100610008091F2009FBF90E0089581508F3008F0E4
:1006200047C0E82FF0E0E95EFC4F0C94271D34032F
:10063000380326032C0330035803580358033B03A5
:100640004103450349034F0358035303809180003E
:100650008F77809380000895809180008F7DF9CFFF
:1006600080918000877FF5CF84B58F7784BD089512
:1006700084B58F7DFBCF809190008F778093900021
:100680000895809190008F7DF9CF80919000877FB1
:10069000F5CF8091C0008F778093C000089580913E
:1006A000C0008F7DF9CF8091C200877F8093C20008
:1006B0000895CF93DF93282F30E0F901EB56FE4FDA
:1006C0008491F901EF5FFE4FD491F901EE51FF4F94
:1006D000C491CC23A1F081110E940D03EC2FF0E016
:1006E000EE0FFF1FEC52FF4FA591B491EC91ED235B
:1006F00081E090E009F480E0DF91CF91089580E0FF
:1007000090E0FACF1F93CF93DF93282F30E0F901C9
:10071000EB56FE4F8491F901EF5FFE4FD491F90142
:10072000EE51FF4FC491CC23A9F0162F81110E94E6
:100730000D03EC2FF0E0EE0FFF1FEA53FF4FA591E2
:10074000B4918FB7F894EC91111108C0D095DE23C5
:10075000DC938FBFDF91CF911F910895DE2BF8CFEF
:10076000CF93DF9390E0FC01EF5FFE4F24918E5119
:100770009F4FFC0184918823C9F090E0880F991F56
:10078000FC01E854FF4FA591B491FC01EA53FF4FDF
:10079000C591D49161110DC09FB7F8948C912095AB
:1007A00082238C938881282328839FBFDF91CF9158
:1007B0000895623051F49FB7F8943C91822F809550
:1007C00083238C93E8812E2BEFCF8FB7F894EC9195
:1007D0002E2B2C938FBFEACFCF93DF93EC0161E0F8
:1007E0008AE00E94B003209731F460E08AE0DF9154
:1007F000CF910C948203CF3FD10511F461E0F6CF85
:10080000EFE9F1E0E491E150EF3008F07EC0F0E074
:10081000E45FFB4F0C94271D1B04220427043104C2
:100820003B0485048504850445044F04590463048E
:1008300070048504780484B5806884BDC7BDDF91E9
:10084000CF91089584B5806284BDC8BDF8CF8091F2
:100850008000806880938000D0938900C0938800D6
:10086000EECF80918000806280938000D0938B00D7
:10087000C0938A00E4CF80918000886080938000DC
:10088000D0938D00C0938C00DACF80919000806867
:1008900080939000D0939900C0939800D0CF80911E
:1008A0009000806280939000D0939B00C0939A0048
:1008B000C6CF80919000886080939000D0939D0077
:1008C000C0939C00BCCF8091C00080688093C00022
:1008D0008091C0008F7B8093C000C093CF00AFCFCA
:1008E0008091C00080628093C000C093D000A7CFE9
:1008F0008091C20088608093C2008091C2008B7F8B
:100900008093C200C093D2009ACFC038D1050CF0BA
:1009100075CF6BCF8251E82FF0E0E455FF4FE491A3
:1009200090917B008E2F880F880F80729F7D892B7E
:1009300080937B00E770E064E0937C0080917A0014
:10094000806480937A0080917A0086FDFCCF80914C
:1009500078009091790008953FB7F8948091D8027B
:100960009091D902A091DA02B091DB0226B5A89B42
:1009700005C02F3F19F00196A11DB11D3FBFBA2F31
:10098000A92F982F8827BC01CD01620F711D811DF1
:10099000911D42E0660F771F881F991F4A95D1F776
:1009A00008958F929F92AF92BF92CF92DF92EF9273
:1009B000FF924B015C010E94AC046B017C010E9420
:1009C000AC046C197D098E099F09683E734081054E
:1009D0009105A8F321E0821A9108A108B10888EED8
:1009E000C80E83E0D81EE11CF11C81149104A104FF
:1009F000B10429F7FF90EF90DF90CF90BF90AF90B8
:100A00009F908F9008957F928F929F92AF92BF9206
:100A1000CF92DF92EF92FF920F931F93CF93DF93CA
:100A2000C82E8B017A0180911D03811110C08FEFB8
:100A30009FEFDF91CF911F910F91FF90EF90DF908B
:100A4000CF90BF90AF909F908F907F9008958091AE
:100A5000EE0280FF05C08091E00082608093E0009C
:100A6000CE2DDF2DD12C8AEFB82E8C2D8770982EAD
:100A70008C2D8072882E8C2D8074782E9AE3A92E6E
:100A8000209719F4DD2009F452C08C2D0E94280211
:100A900081110AC0BA94BB2051F261E070E080E09D
:100AA00090E00E94D104ECCF8C171D0611F00CF0E1
:100AB0008C2F9FB7F8949092E9002091E80025FDD3
:100AC00002C09FBFDDCF282F30E0C21BD30B882090
:100AD00029F08150A0F01092F100FBCFF801C7FC83
:100AE0000AC0815050F041914093F100FACF4491F7
:100AF0004093F10031968150D0F7020F131FDD2093
:100B000021F0A092E800D12CDCCF8091E80085FD97
:100B100007C0A092E800DD24D394209791F2F3CF90
:100B2000209779F6772069F2A092E800CACF5D9805
:100B300084E68093ED02C7017CCFCF93DF93EC0175
:100B400080911C01882331F083E00E940305181670
:100B5000190634F081E090E09B838A8380E090E086
:100B6000DF91CF9108952FB7F8946091D4027091DE
:100B7000D5028091D6029091D7022FBF0895089593
:100B80002091AE02260F3327331F21323105ECF4BA
:100B900020914403FC0190E080E0243069F082E081
:100BA0000895A091AE022191AC0144575D4FA40F6E
:100BB000B52FB11D2C930196861798F38091AE0244
:100BC000680F6093AE0280E0089581E0089510926E
:100BD000440381E08093430310923E0361E082E08E
:100BE0000E94820361E083E00E948203E9EBF0E06F
:100BF00080818E7F808380818D7F808388E4809355
:100C0000B80085E48093BC000895CF93DF9391E012
:100C100090938B028823B9F0C091B800D091BA00AC
:100C20008091BC008A7B8093BC0060E082E00E94DF
:100C3000820360E083E00E9482030E94E705D09374
:100C4000BA00C093B800DF91CF9108950895089538
:100C50000895E0914B0380914A03E81730F4F0E0E7
:100C6000E45BFC4F808190E008958FEF9FEF089543
:100C700090914B0380914A032FEF3FEF981748F470
:100C8000E92FF0E0E45BFC4F208130E09F5F909320
:100C90004B03C901089580914A0390914B03891B2E
:100CA000990B0895CF92DF92EF92FF920F931F93CB
:100CB000CF93DF937C01CB018A012091880222230C
:100CC00089F0EB016B01C40ED51ECC15DD0569F072
:100CD0006991D701ED91FC910190F081E02DC70160
:100CE0000995F3CF642F0E94C005C801DF91CF9111
:100CF0001F910F91FF90EF90DF90CF900895CF93C9
:100D0000DF931F92CDB7DEB769832091880222233B
:100D1000F9F020918902203258F021E030E0FC0106
:100D20003383228390E080E00F90DF91CF9108958C
:100D300080918A02E82FF0E0E859FD4F9981908375
:100D40008F5F80938A028093890281E090E0ECCFEC
:100D500061E0CE0101960E94C005F7CF90E080E0EF
:100D60000895DC01FB0112962C91129784819581E4
:100D70002817190641F491818081813A31F49D7FD1
:100D800081E0913009F080E008958132E1F79B30F5
:100D900029F482811F968C9381E008959A3099F707
:100DA000828150968C93F8CFDC01FB0188E480832C
:100DB00089E4818384E482831D969C911D979F70B2
:100DC0009F5B93831D968D919C9124E096958795CA
:100DD0002A95E1F78F708F5B848385E00895EF9209
:100DE000FF920F931F93CF93DF93FB012081213854
:100DF00089F52381223271F5DC0112964C91248110
:100E000035814217130631F58C01FC01C385D48569
:100E1000F12CE12C209791F04C815D816A817B81DE
:100E20008E81811180E80E9402028F3F980759F05D
:100E3000E80EF91E0990D881C02DECCF81E0D801D1
:100E40001F968C93C701DF91CF911F910F91FF9057
:100E5000EF90089590E080E0F6CFCF93DF93CDB789
:100E6000DEB769970FB6F894DEBF0FBECDBFFC01A9
:100E7000DB018C918F5F8C939E012D5F3F4F8DE046
:100E8000D9011D928A95E9F729E0298384E08A83B4
:100E900091E09D8383E08E832A8721E22B879C87C4
:100EA0009D879F8722E2288B27E02B8B25E02C8BC8
:100EB0008E8B20E430E0388F2F8B998F82818B834B
:100EC00095858685998B8A8B838180688D8B49E196
:100ED00050E0BE016F5F7F4F80E00E940202699682
:100EE0000FB6F894DEBF0FBECDBFDF91CF9108954E
:100EF000CF93DF9380916002811167C081E080937E
:100F000053028093540229E532E030935602209335
:100F1000550210925802109257022FE231E030939E
:100F2000500220934F0210925B0210925A021092CC
:100F30005D0210925C0280935E0280935F0281ECFE
:100F4000809359020E944602FC01818190915302D4
:100F5000482F490F5527551F483051059CF5A28150
:100F6000B381109709F52FE432E033832283208187
:100F7000209351028093520280915402820F808309
:100F800020915502A22FB09156028A2F821B8917F9
:100F9000C8F481813D91C82FD0E0C65FDE4F388311
:100FA0008F5F8183F2CFD90118962D913C911997CB
:100FB00021153105C1F72FE432E019963C932E93A9
:100FC0001897D5CF81E0809360028FE492E0DF91A3
:100FD000CF910895CF92DF92EF92FF920F931F93DC
:100FE000CF93DF93EC018B018E819F81861797074A
:100FF00011F10E94B305CA80DB80EC80FD806C1982
:101000007D098E099F09683C71058105910540F0B5
:101010000E94B3056A837B838C839D831F830E8329
:101020008E819F81DF91CF911F910F91FF90EF9063
:10103000DF90CF9008950E94B3056A837B838C83F1
:101040009D83EECF42E050E061E671E08CE693E0F4
:101050000C949D05CF93DF93FC0101900020E9F7EC
:101060003197AF01481B590BBC018CE693E00E94FD
:101070009D05EC010E9422088C0F9D1FDF91CF91EE
:101080000895FC0144815581608171818CE693E073
:101090000E949D050C9422088F929F92AF92BF925E
:1010A000CF92DF92EF92FF920F931F93CF93DF9334
:1010B000CDB7DEB7ADB6BEB68091DA042DB73EB778
:1010C000281B31090FB6F8943EBF0FBE2DBF8DB758
:1010D0009EB701966C01E090A904F12C8091A504C3
:1010E0009091A604D601FC019F01281B390B2E15F7
:1010F0003F051CF421912D93F7CF8091AA048823FA
:1011000059F18091A1049091A20428E097FD09C0B3
:1011100068E671E00E94131D6DE270E00E94131DED
:10112000262F8091A3049091A40468E097FD08C045
:1011300068E671E00E94131D6DE270E00E94131DCD
:10114000F601EE0DFF1D90E1699FB0011124262BE1
:101150002083F70131967F0186010E0D1F1D20911E
:10116000AF043091B0044091AD045091AE04609151
:101170008B0470918C048091AB0481700E940501F6
:10118000E80EF91E86010E0D1F1D2091B30430914B
:10119000B4044091B1045091B20460918D047091F7
:1011A0008E048091AB04869581700E940501E80E43
:1011B000F91E86010E0D1F1D2091B7043091B80451
:1011C0004091B5045091B60460918F0470919004E1
:1011D0008091AB0482FB882780F90E940501E80E0C
:1011E000F91E86010E0D1F1D2091BB043091BC0419
:1011F0004091B9045091BA046091910470919204A5
:101200008091AB0483FB882780F90E940501E80EDA
:10121000F91E86010E0D1F1D2091BF043091C004E0
:101220004091BD045091BE04609193047091940468
:101230008091AB04829581700E940501E80EF91E31
:1012400086010E0D1F1D2091C3043091C4044091EE
:10125000C1045091C20460919504709196048091EC
:10126000AB0485FB882780F90E940501E80EF91E72
:1012700086010E0D1F1D2091C7043091C8044091B6
:10128000C5045091C6046091990470919A048091AC
:10129000AC0481700E940501E80EF91E86010E0D56
:1012A0001F1D2091CB043091CC044091C904509172
:1012B000CA0460919704709198048091AC0486955B
:1012C00081700E940501E80EF91E86010E0D1F1D9A
:1012D0002091CF043091D0044091CD045091CE04A0
:1012E00060919B0470919C048091AC0482FB8827E0
:1012F00080F90E940501E80EF91E86010E0D1F1DE2
:101300002091D3043091D4044091D1045091D2045F
:1013100060919D0470919E048091AC0483FB8827AA
:1013200080F90E9405018E0D9F1D8601080F191F6F
:101330002091D7043091D8044091D5045091D6041F
:1013400060919F047091A0048091AC04829581709B
:101350000E9405010E9478074C014091DA048091B7
:10136000D90450E07A01FFEFEF1AFF0A2DB73EB71C
:101370002E193F090FB6F8943EBF0FBE2DBF0DB713
:101380001EB70F5F1F4FEDB7FEB78183B601C801CF
:1013900001960E94231FF4018381A701B801806494
:1013A0000E9403050FB6F894BEBE0FBEADBEDF911E
:1013B000CF911F910F91FF90EF90DF90CF90BF9052
:1013C000AF909F908F900895E82FE695E695E6956B
:1013D0002091A5043091A604E20FF32FF11D282FD0
:1013E000277081E090E0A0E0B0E004C0880F991F72
:1013F000AA1FBB1F2A95D2F72081822B8083809160
:10140000A70481110C944C0808959091A8048917A1
:1014100008F5E82FE695E695E6952091A50430912C
:10142000A604E20FF32FF11D282F277081E090E032
:10143000A0E0B0E004C0880F991FAA1FBB1F2A9527
:10144000D2F780959081892380838091A7048111B0
:101450000C944C080895082E000C990B2091AA04B6
:101460002817190669F064F0880F991FFC01EF55E1
:10147000FB4F718360838091A70481110C944C0809
:101480000895CF92DF92EF92FF920F931F93CF9325
:10149000C62F0E94AC046B017C0180914403811132
:1014A00064C081E080934403809343039FEF909353
:1014B0004203109241031092400380933F038091B6
:1014C0003F03CC0FC82BC0933F0380913E03813074
:1014D00009F07DC010923E030E94AC046B017C01B8
:1014E00080913F038093BB00809146039091470316
:1014F000A0914803B0914903892B8A2B8B2BA1F033
:101500000E94AC04009146031091470320914803C8
:10151000309149036C197D098E099F090617170739
:101520002807390708F442C08091BC0083FDD8CF5A
:1015300085EC8093BC000E94AC046B017C0180911F
:101540004403813009F445C080914103811163C097
:1015500080914103EEE1F3E0ACE4B3E090E0981752
:1015600051F121912D939F5FFACF80914603909185
:101570004703A0914803B0914903892B8A2B8B2BF9
:1015800009F48BCF0E94AC040091460310914703ED
:1015900020914803309149036C197D098E099F09F8
:1015A000061717072807390708F077CF80914503FA
:1015B0000E94050680E010924B0380934A03CF916E
:1015C0001F910F91FF90EF90DF90CF90089585EEDF
:1015D000B0CF8091460390914703A0914803B0910A
:1015E0004903892B8A2B8B2B09F4A9CF0E94AC04C9
:1015F000009146031091470320914803309149031D
:101600006C197D098E099F090617170728073907E6
:1016100008F095CFCBCF81E09DCF0F931F93CF9351
:10162000DF93CDB7DEB728970FB6F894DEBF0FBEB5
:10163000CDBF8C01DC0118966C9118971B968D918B
:101640009C910E94410A0E94B305F801618F728F3C
:10165000838F948F83859485DC01ED91FC910084C8
:10166000F185E02D0995892B21F1F8018385948579
:10167000DC01ED91FC910284F385E02D0995F801E0
:101680002589282351F49C013327209530954489DE
:1016900050E024233523232B61F0D80153969C91ED
:1016A0005397909556962C9156979223892B569640
:1016B0008C93F8018389968980FF03C0292F2170BC
:1016C000208381FF0CC0492F50E070E060E07695E8
:1016D0006795579547954170D80111964C9382FFB5
:1016E0000EC0492F50E070E060E022E076956795EB
:1016F000579547952A95D1F74170F801428383FFAA
:101700000FC0492F50E070E060E0B3E07695679538
:1017100057954795BA95D1F74170D80113964C93D8
:1017200084FF0EC0492F50E070E060E0A4E07695A1
:10173000679557954795AA95D1F74170F80144836D
:1017400085FF0FC0492F50E070E060E0F5E076952E
:10175000679557954795FA95D1F74170D801159639
:101760004C9386FF0EC0492F50E070E060E0E6E049
:101770007695679557954795EA95D1F74170F801A9
:10178000468387FF07C0292F221F2227221FD80147
:1017900017962C93F801218920FF03C0358D3170F5
:1017A000308321FF0EC0D8015D964C915D9750E0CB
:1017B00070E060E076956795579547954170119672
:1017C0004C9322FF0EC0F801458D50E070E060E0C0
:1017D000A2E07695679557954795AA95D1F7417000
:1017E000428323FF11C0D8015D964C915D9750E074
:1017F00070E060E033E076956795579547953A95A8
:10180000D1F7417013964C9324FF0EC0F801458D1B
:1018100050E070E060E0A4E07695679557954795B5
:10182000AA95D1F74170448325FF11C0D8015D9678
:101830004C915D9750E070E060E0E5E0769567954B
:1018400057954795EA95D1F7417015964C9326FF29
:101850000EC0F801458D50E070E060E036E076950E
:101860006795579547953A95D1F74170468327FF7D
:1018700009C0D8015D962C915D97221F2227221F57
:1018800017962C93F801208D282380958923822B8D
:10189000868B88E0DE01119601900D928A95E1F722
:1018A00029813A814B815C816D817E818F81988510
:1018B00028960FB6F894DEBF0FBECDBFDF91CF9153
:1018C0001F910F910895FC0180819181009711F083
:1018D0000C94DD1D08950F931F93CF93DF93EC01BC
:1018E00088819981009759F02A813B812617370713
:1018F00030F081E0DF91CF911F910F9108958B011E
:101900006F5F7F4F0E94661E009759F0998388830E
:101910001B830A832C813D81232B59F7FC01108204
:10192000E8CF80E0E7CFEF92FF920F931F93CF9322
:10193000DF93EC01FB01E080F180E114F10411F18F
:101940000481158101151105A9F08C819D81080F75
:10195000191FB801CE010E946B0C882399F02881D1
:1019600039818C819D81B701820F931F0E942C1FAA
:101970001D830C83CE01DF91CF911F910F91FF90BA
:10198000EF90089588819981009711F00E94DD1DE4
:10199000198218821D821C821B821A82EBCFEF9261
:1019A000FF920F931F93CF93DF93EC017B018A018A
:1019B000BA010E946B0C28813981811114C0211554
:1019C000310519F0C9010E94DD1D198218821D829E
:1019D0001C821B821A82CE01DF91CF911F910F9141
:1019E000FF90EF9008951D830C83B701C9010E94F9
:1019F0002C1FF1CFFB0101900020E9F73197AF01D7
:101A0000461B570B0C94CF0C0F931F93CF93DF9370
:101A1000CDB7DEB7A2970FB6F894DEBF0FBECDBF2D
:101A20008C01CB01BA01F80111821082138212825B
:101A3000158214822AE0AE014F5F5F4F0E94261C80
:101A4000BE016F5F7F4FC8010E94FA0CA2960FB6CD
:101A5000F894DEBF0FBECDBFDF91CF911F910F91E4
:101A600008950F931F93CF93DF93CDB7DEB762979F
:101A70000FB6F894DEBF0FBECDBF8C01CB01F801CD
:101A80001182108213821282158214824AE0BE01F2
:101A90006F5F7F4F0E941B1CBE016F5F7F4FC801AD
:101AA0000E94FA0C62960FB6F894DEBF0FBECDBF4F
:101AB000DF91CF911F910F9108950F931F93CF93B3
:101AC000DF93CDB7DEB729970FB6F894DEBF0FBE10
:101AD000CDBF8C01862FF8011182108213821282F1
:101AE000158214824AE0BE016F5F7F4F90E00E9432
:101AF000571CBE016F5F7F4FC8010E94FA0C2996E8
:101B00000FB6F894DEBF0FBECDBFDF91CF911F910E
:101B10000F910895FB01DC0111961C921E92139601
:101B20001C921E92129715961C921E92149786175D
:101B3000970749F0608171816115710521F0448139
:101B400055810C94CF0C0895FC01118210821382F0
:101B5000128215821482FB0101900020E9F731976F
:101B6000AF01461B570B0C94CF0C4F925F926F92B4
:101B70007F928F929F92AF92BF92CF92DF92EF921D
:101B8000FF920F931F93CF93DF9300D000D000D02C
:101B9000CDB7DEB78C0164E671E0CE0101960E94FC
:101BA000A40DCE0101960E944108CE0101960E942B
:101BB000630C60E0C8010E945C0161E0C8010E9402
:101BC0005C0162E0C8010E945C0163E0C8010E9400
:101BD0005C0164E0C8010E945C0165E0C8010E94EC
:101BE0005C0166E0C8010E945C0167E0C8010E94D8
:101BF0005C0184E0D80196968C9310924B0310926E
:101C00004A0310928A02109289020E94E70586E236
:101C100096E09093AD028093AC0287E296E09093B9
:101C2000B1028093B002F80181892389811103C038
:101C3000222309F4CDC0D8011B968D919C911C974D
:101C400018963C91189741E04093880230934E02D9
:101C500052966C915297622B57966C93DC01ED91E2
:101C6000FC910190F081E02D0995F8019289848919
:101C7000892B808F868B958FE0908902F0E281E03E
:101C8000FE1508F49CC0F0904E020E94AC044B017B
:101C90005C018091440381116CC082E08093440315
:101CA00081E0809343038FEF8093420310924103BE
:101CB000E0924003A8E6B2E0EEE1F3E080E0E81253
:101CC000C5C010923F0380913F03FF0CF82AF092A9
:101CD0003F0380913E03813009F0BCC010923E0367
:101CE0000E94AC046B017C0180913F038093BB0098
:101CF0008091460390914703A0914803B091490316
:101D0000892B8A2B8B2BA1F00E94AC048090460378
:101D100090904703A0904803B09049036C197D0947
:101D20008E099F0986169706A806B90608F442C0D0
:101D30008091BC0083FDD8CF85EC8093BC000E94CD
:101D4000AC046B017C0180914403823009F484C0AF
:101D5000809142038F3F09F4A1C0809142038032F9
:101D600009F49EC080914203803309F49BC084E053
:101D700026C08091460390914703A0914803B091FB
:101D80004903892B8A2B8B2B09F483CF0E94AC0447
:101D90004090460350904703609048037090490379
:101DA000681979098A099B09461657066806790653
:101DB00008F06FCF809145030E94050685E01092E0
:101DC0008A021092890210928802D80196968C930A
:101DD000F80185858823E1F062E086850E94B003E2
:101DE000D8011F968D919C9150971E962C9122237D
:101DF00009F485C0213009F057C090930701809302
:101E00000601809169008F73806880936900EB9A66
:101E10000E94B305F801618F728F838F948F26968D
:101E20000FB6F894DEBF0FBECDBFDF91CF911F91EB
:101E30000F91FF90EF90DF90CF90BF90AF909F9069
:101E40008F907F906F905F904F9008959D919193A8
:101E50008F5F35CF85EE71CF809146039091470318
:101E6000A0914803B0914903892B8A2B8B2B09F44D
:101E70006ACF0E94AC048090460390904703A090E4
:101E80004803B09049036C197D098E099F09861695
:101E90009706A806B90608F056CF8CCF80E08FCF02
:101EA00082E08DCF83E08BCF223061F490930301E9
:101EB0008093020180916900837F8860809369002C
:101EC000E99AA6CF233061F4909301018093000139
:101ED000809169008C7F826080936900E89A98CF36
:101EE000273009F095CF90930901809308018091E4
:101EF0006A008F7C806280936A00EE9A89CF90930B
:101F0000050180930401809169008F7C8062809339
:101F10006900EA9A7DCFCF92DF92FF920F931F93D1
:101F2000CF93DF93CDB7DEB762970FB6F894DEBFDD
:101F30000FBECDBFFA019081981709F45FC06A0106
:101F4000F72E062F182F882309F466C0862F0E94CB
:101F5000050AF6011083602F7F2DCE0107960E949F
:101F6000310D66E771E0CE0101960E94A40DBE011D
:101F7000695F7F4FCE0101960E94930CBC01CE0198
:101F80000D960E948A0D49895A896D857E858CE659
:101F900093E00E949D05CE010D960E94630CCE0138
:101FA00001960E94630CCE0107960E94630C612F7C
:101FB000CE0107960E945D0D67E871E0CE010196A3
:101FC0000E94A40DBE01695F7F4FCE0101960E9461
:101FD000930CBC01CE010D960E948A0DCE010D9688
:101FE0000E944108CE010D960E94630CCE0101961D
:101FF0000E94630CCE0107960E94630C62960FB696
:10200000F894DEBF0FBECDBFDF91CF911F910F912E
:10201000FF90DF90CF9008958091A804681708F092
:1020200098CF862F0E94E40994CFCF92DF92EF924F
:10203000FF920F931F93CF93DF938B017A01E901F6
:102040002097B1F0E881F981C080D1800E945903C6
:10205000BC01CE01F6010995A701B801DF91CF912E
:102060001F910F91FF90EF90DF90CF900C948B0F0A
:102070000E945903F1CF85ED8093BC008091460307
:1020800090914703A0914803B09149030796A11D81
:10209000B11D23E0B695A795979587952A95D1F719
:1020A0002091BC0024FD03C0109244030895409188
:1020B0004603509147036091480370914903452BB3
:1020C000462B472B69F30097A105B10541F02AE2A1
:1020D0002A95F1F700C00197A109B109E1CF8091DC
:1020E00045030C9405061F920F920FB60F92112410
:1020F0008F939F938091E1009091E100937F909363
:10210000E10083FF0FC01092E90091E09093EB0093
:102110001092EC0092E39093ED0010921D0398E072
:102120009093F00082FF22C093E09093E900909199
:10213000F200992319F09AE39093E8009091ED0250
:10214000992341F09091ED0291509093ED029111FD
:1021500001C05D9A90911C03992341F090911C035A
:10216000915090931C03911101C0289A84FF18C0CC
:102170008091E2008E7E81608093E2008091E10098
:102180008F7E8093E1008091EE028E7E806180934D
:10219000EE029F918F910F900FBE0F901F90189598
:1021A00080FFF7CF8091E2008E7E80618093E20015
:1021B0008091E1008E7E8093E1008091EE028E7E20
:1021C0008160E5CF1F920F920FB60F921124CF922C
:1021D000DF92EF92FF920F931F932F933F934F93B2
:1021E0005F936F937F938F939F93AF93BF93EF937F
:1021F000FF93CF93DF93CDB7DEB76C97DEBFCDBF34
:102200001092E9008091E80083FF25C068E0CE01CC
:1022100045960E94390282EF8093E8008D8987FFFE
:1022200039C09091E80090FFFCCF982F907609F08C
:1022300034C19E894F89588D2F89F88C911131C0F6
:10224000803861F58091EF028093F1001092F100E7
:102250008EEF8093E8006C960FB6F894DEBF0FBE49
:10226000CDBFDF91CF91FF91EF91BF91AF919F9142
:102270008F917F916F915F914F913F912F911F911E
:102280000F91FF90EF90DF90CF900F900FBE0F90C7
:102290001F9018959EEF9093E800C7CF1092F10021
:1022A000D5CF913059F48111D3CF4130510581F60A
:1022B0008091EF028D7F8093EF02CACF933049F473
:1022C0008111C6CF4130510519F68091EF0282602D
:1022D000F2CF953041F48091E80080FFFCCF206878
:1022E0002093E300B5CF963009F0A9C00B8D1C8D6B
:1022F00022E01092E9001092EB021092EA02F21230
:102300002EC01092E9021092E8020E945A021F8227
:1023100099E09983FA8291E09E8390EA98879AEFF8
:1023200099872091EA023091EB02275F3F4F3C836F
:102330002B838D831092E9001092EB021092EA0237
:102340001093E9020093E80249E050E0BE016F5F9C
:102350007F4F80E00E9402020E945A0279CF1093C0
:10236000E9020093E8020E944602DC0112960D91F8
:102370001C910115110509F451C1D801ED91FC9191
:102380000480F581E02DBE016B5E7F4FC801099589
:10239000009709F03EC1F80100851185EACFF3E00E
:1023A000FF120EC08F89882309F440C0823061F487
:1023B00040E860E184E891E00E94CF01811148CFBC
:1023C00081E28093EB0047CF813029F440E86BE055
:1023D00088E791E0F1CF833099F70E944602DC0153
:1023E0001296ED90FC908E010F5F1F4F6801E11473
:1023F000F10479F0D701ED91FC910680F781E02D91
:10240000B801C7010995080F111DF701E084F18497
:10241000EECFD8011C92F60101900020E9F7319728
:10242000BF016C197D0940E0C601C6CF62E671E0CC
:10243000FB01449150E080E80E94020209CF9730EE
:1024400009F4BECF983021F481E08093F10000CFF1
:10245000993009F0FDCE837009F0B2CFEBE0F1E0E6
:1024600081E031E096E32191222371F08093E9002D
:102470003093EB00DF0111972C912093EC009093A7
:10248000ED008F5F873079F78EE78093EA00109236
:10249000EA008F8980931D03DBCE8B8D9C8D10927B
:1024A000E9001092EB021092EA029093E902809305
:1024B000E802898D811192C08E899D89913A49F4F3
:1024C000813209F07DCF47E050E065E171E080E0C6
:1024D000B3CF913209F074CF833269F48F89988D2C
:1024E000B0E0A0E08093110190931201A09313013A
:1024F000B0931401ADCE803269F48091E80082FF80
:10250000FCCF67E085E191E00E9439028BEF809378
:10251000E8009ECE823209F09BCE8F8980931C0109
:10252000EEEFFFE7859194918B3F9C4D51F1E0E0F8
:10253000F8E08091150190911601A0911701B091DA
:102540001801803B9440A105B105F1F480911C0174
:1025500080FD1AC0EE3F8AE0F80789F587E797E724
:1025600091838083809160008093EC0288E19BE0FE
:102570000FB6F894A895809360000FBE909360000A
:1025800067CEEEEFFAE0D5CF80819181873797470C
:1025900009F05ECEA895809160008861809360000C
:1025A0008091EC0280936000EE3F2AE0F20789F010
:1025B0008091FE0A9091FF0A9183808349CE8081A9
:1025C00091818737980751F29093FF0A8093FE0A12
:1025D000C5CF1092FF0A1092FE0A3ACE0E94460220
:1025E000DC0112960D911C910115110509F4E8CE3C
:1025F000D801ED91FC910190F081E02DBE016B5E60
:102600007F4FC8010995811123CEF80100851185FE
:10261000EBCF181619060CF41BCED2CEF1E0FF1248
:10262000BECE66E671E004CF1F920F920FB60F92F6
:1026300011242F933F938F939F93AF93BF938091D8
:10264000D4029091D502A091D602B091D7023091D8
:10265000D30223E0230F2D3758F50196A11DB11D9C
:102660002093D3028093D4029093D502A093D602F4
:10267000B093D7028091D8029091D902A091DA024A
:10268000B091DB020196A11DB11D8093D8029093F9
:10269000D902A093DA02B093DB02BF91AF919F9170
:1026A0008F913F912F910F900FBE0F901F90189513
:1026B00026E8230F0296A11DB11DD2CF1F920F92C3
:1026C0000FB60F9211242F933F934F935F936F9305
:1026D0007F938F939F93AF93BF93EF93FF93E0917B
:1026E0000801F09109010995FF91EF91BF91AF9118
:1026F0009F918F917F916F915F914F913F912F911A
:102700000F900FBE0F901F9018951F920F920FB64B
:102710000F9211242F933F934F935F936F937F9367
:102720008F939F93AF93BF93EF93FF93E091060135
:10273000F09107010995FF91EF91BF91AF919F91A2
:102740008F917F916F915F914F913F912F910F905A
:102750000FBE0F901F9018951F920F920FB60F92F9
:1027600011242F933F934F935F936F937F938F9396
:102770009F93AF93BF93EF93FF93E0910401F09188
:1027800005010995FF91EF91BF91AF919F918F91B5
:102790007F916F915F914F913F912F910F900FBE5D
:1027A0000F901F9018951F920F920FB60F92112441
:1027B0002F933F934F935F936F937F938F939F9349
:1027C000AF93BF93EF93FF93E0910201F091030168
:1027D0000995FF91EF91BF91AF919F918F917F915B
:1027E0006F915F914F913F912F910F900FBE0F907E
:1027F0001F9018951F920F920FB60F9211242F93CE
:102800003F934F935F936F937F938F939F93AF9378
:10281000BF93EF93FF93E0910001F09101010995BF
:10282000FF91EF91BF91AF919F918F917F916F91A8
:102830005F914F913F912F910F900FBE0F901F907E
:1028400018951F920F920FB60F9211242F933F935A
:102850004F935F936F937F938F939F93AF93BF93A8
:10286000EF93FF938091B900887F803609F44AC0C6
:10287000F0F5883209F4A7C018F5803109F49BC03F
:10288000B8F4882309F4F9C0883009F494C0FF91A2
:10289000EF91BF91AF919F918F917F916F915F91D8
:1028A0004F913F912F910F900FBE0F901F90189551
:1028B000883109F488C0803251F78093420314C0F4
:1028C000803409F49DC040F48033B9F38833F9F6BD
:1028D0008093420385ECB0C0803509F485C088350B
:1028E00009F496C0883499F60E943B10D0CF8839FD
:1028F00009F48CC038F5883729F050F4883611F087
:10290000803729F683E0809344031092D20257C0A7
:10291000883809F47BC0803919F0803809F0B7CFC6
:102920008091D202803208F071C0E091D20281E041
:102930008E0F8093D2028091BB00F0E0EE54FD4FE9
:1029400080833DC0803B39F0E0F4803A09F479C0DF
:10295000883A09F09CCF84E0809344031092AF0240
:102960001092AE02E091AC02F091AD020995809117
:10297000AE0281110FC081E08093AE0210928C02F2
:1029800009C0803C09F4A6CF883C09F4A3CF883B5A
:1029900009F07DCFE091AF0281E08E0F8093AF020E
:1029A000F0E0E457FD4F80818093BB009091AF022F
:1029B0008091AE0229C080913F038093BB0085ECDB
:1029C0008093BC0064CF909141038091400398179D
:1029D00058F5E091410381E08E0F80934103F0E0D0
:1029E000E25EFC4F8081E9CFE091410381E08E0FF0
:1029F000809341038091BB00F0E0E25EFC4F808356
:102A000090914103809140039817C8F285E8D8CF90
:102A1000E091410381E08E0F809341038091BB00E0
:102A2000F0E0E25EFC4F80838091430381115CCF34
:102A300081E080933E0384EA8093BC0010924403BB
:102A400026CF85EC8093BC00109244038091D20283
:102A5000803230F4E091D202F0E0EE54FD4F10826B
:102A60006091D20270E0E091B002F091B10282EB8D
:102A700092E009951092D2020ACF1092420334CF0D
:102A8000FC0182E0818793E0928715868687108A11
:102A90001786118A128A138A148A158A168A178A47
:102AA000108E118E128E138E148E158E168E178E1A
:102AB00011A210A28AE090E093A382A38BE484A3E6
:102AC00081EE85A316A28CEB93E0948783876087C1
:102AD0000895DF92EF92FF920F931F93CF93DF93AE
:102AE000CDB7DEB7C659D1090FB6F894DEBF0FBE19
:102AF000CDBF10926F0310926E0388EE93E0A0E0BA
:102B0000B0E08093700390937103A0937203B0932D
:102B100073032BE331E030936D0320936C032FEFAD
:102B20003FEF30937903209378031092BF03109204
:102B3000BE038093C0039093C103A093C203B093DC
:102B4000C3038DE491E09093BD038093BC038FE5B4
:102B500091E09093EC048093EB041092ED041092BA
:102B6000EE041092EF041092F0041092F20410920E
:102B7000F1049093E4048093E3041092E50410922E
:102B8000E6041092E7041092E8041092EA0410920E
:102B9000E9049093DC048093DB041092DD0410922E
:102BA000DE041092DF041092E0041092E20410920E
:102BB000E1041092A6041092A5041092A9041092A8
:102BC000AE041092AD048FEF93E09093B004809325
:102BD000AF041092B2041092B1049093B4048093A5
:102BE000B3041092B6041092B5049093B804809385
:102BF000B7041092BA041092B9049093BC04809365
:102C0000BB041092BE041092BD049093C004809344
:102C1000BF041092C2041092C1049093C404809324
:102C2000C3041092C6041092C5049093C804809304
:102C3000C7041092CA041092C9049093CC048093E4
:102C4000CB041092CE041092CD049093D0048093C4
:102C5000CF041092D2041092D1049093D4048093A4
:102C6000D3041092D6041092D5049093D804809384
:102C7000D704B3E0B093D90437E23093A80422E03C
:102C80002093AA0464E06093AB041092AC04A5E026
:102C9000A98381E08A8399E09B836C8311EA1D8379
:102CA0008E8345E84F83B887A9879A8749E14B8788
:102CB0008C8749E24D873E87F5E1FF87188AE5E278
:102CC000E98B8A8B55E75B8B8C8B45E94D8B3E8B73
:102CD00035E53F8B188E75E6798F1A8E31E83B8F7C
:102CE0002C8F5D8F8E8F4F8F88A339A3BAA3ABA390
:102CF0008CA39DA3A9E3DA2EDEA2FFA318A6E9A761
:102D0000B7E0EB2EEAA605E3F02EFBA61CA606E430
:102D10000DA7BBE3BEA78FA778ABA4E1A9AB5AABC5
:102D20006BAB4CAB8DAB3EAB2FAB98AFD9AEFAAF24
:102D30001BAEECAFEDAEFEAE1FAE21960FAF2197EE
:102D40002296BFAF229723968FAF239724967FAF0B
:102D500024972596AFAF259726965FAF269727969F
:102D60006FAF279728964FAF289729968FAF29974F
:102D70002A963FAF2A972B962FAF2B972C969FAF73
:102D80002C972D968FAF2D9766E12E966FAF2E97CD
:102D90002F968FAF2F9760E860966FAF609766E2CF
:102DA00061966FAF61976FEF62966FAF62976FE753
:102DB00063966FAF639764965FAF649750E16596D3
:102DC0005FAF659766964FAF669767968FAF6797C9
:102DD00068961FAF689769961FAE69976A969FAF0E
:102DE0006A9782E36B968FAF6B976C963FAF6C9749
:102DF0006D962FAF6D9780EC6E968FAF6E976F9636
:102E00008FAF6F978EE590E00E94411D7C018EE5AB
:102E1000FE013196D70101900D928A95E1F787E086
:102E200090E00E94411D8C01DC0111961C921E92C3
:102E30001396FC92EE9212978EE590E015969C9375
:102E40008E93149716961C920E947807FC01A38516
:102E5000B485109709F077C0148703878585968518
:102E6000D80114962D913C91820F931F96878587E8
:102E70009091A804892F869586958695977009F07C
:102E80006AC08093A9041091A904812F90E0009753
:102E900011F481E090E00E94411D9093A60480937C
:102EA000A50481E09091AA04911101C080E01E5F09
:102EB000810F8093DA0410928C0410928B0410928C
:102EC0008E0410928D041092900410928F04109230
:102ED0009204109291041092940410929304109210
:102EE00096041092950410929804109297041092F0
:102EF0009A041092990410929C0410929B041092D0
:102F00009E0410929D041092A00410929F048FEFD3
:102F10009FEF9093A2048093A1049093A4048093C4
:102F2000A30490E080E02091A90428171906A9F0D5
:102F3000A4F0E091A504F091A604E80FF91F108217
:102F40000196F1CFDC018D919C9111970097D1F7FB
:102F50000D931C9383CF8F5F94CF60E284E694E05F
:102F60000E94401561E28DE394E00E94401562E208
:102F700086E194E00E94401563E28FEE93E00E94A8
:102F8000401564E288EC93E0CA56DF4F0FB6F89420
:102F9000DEBF0FBECDBFDF91CF911F910F91FF908C
:102FA000EF90DF900C944015CF93DF93CDB7DEB751
:102FB000A8970FB6F894DEBF0FBECDBF789484B546
:102FC000826084BD84B5816084BD85B5826085BD25
:102FD00085B5816085BD80916E00816080936E00B3
:102FE00010928100809181008260809381008091A5
:102FF0008100816080938100809180008160809356
:103000008000809191008260809391008091910076
:103010008160809391008091900081608093900006
:103020008091C10084608093C1008091C100826062
:103030008093C1008091C10081608093C100809124
:10304000C30081608093C3008091C0008260809340
:10305000C0008091C20081608093C20080917A009C
:10306000846080937A0080917A00826080937A00F5
:1030700080917A00816080937A0080917A008068E4
:1030800080937A0010921D031092EF021092EE02CC
:103090008091D70081608093D70080EA8093D80028
:1030A00089B5806189BD89B5826089BD09B400FE9A
:1030B000FDCF61E070E080E090E00E94D10480915B
:1030C000D8008F7C80618093D8008091E000807F61
:1030D0008093E0008091E1008E7E8093E1008DE09E
:1030E0008093E200559A209A68EE73E080E090E0C9
:1030F0000E94D1048FEF9FEF909379038093780320
:1031000068EE73E080E090E00E94D10483E691E0F5
:103110000E942A0882E991E00E942A0887EB91E048
:103120000E942A0868EE73E080E090E00E94D104DB
:1031300080911B0390E00E94EC0381E08093A70440
:103140000E944C081092B6041092B50480E094E0FE
:103150009093B8048093B70462E080E00E94B003CB
:1031600062E081E00E94B00360E085E00E94B0036D
:1031700060E087E00E94B00360E089E00E94B00355
:1031800062E080E10E94B00362E08EE00E94B00342
:1031900062E08FE00E94B00362E082E10E94B0032F
:1031A00062E083E10E94B0036091230170912401E9
:1031B00080E00E942B0A609121017091220181E040
:1031C0000E942B0A84E694E00E94B50D8DE394E002
:1031D0000E94B50D86E194E00E94B50D8FEE93E05C
:1031E0000E94B50D88EC93E00E94B50D62E084E08A
:1031F0000E94B00362E086E00E94B00362E088E0D3
:103200000E94B00324E1822E912CA12CB12C90E0DD
:10321000E92E90E0F92E84E10E948A0497FD03963E
:103220008C01159507951595079580911B0390E0E6
:103230009C01215031090217130724F001968017D1
:1032400091076CF500931B03C80199270E94EC03BA
:10325000602FCE0109960E945D0D6CED71E0CE01EC
:1032600041960E94A40DBE01675F7F4FCE0141963B
:103270000E94930CBC01CE0101960E948A0DCE01E2
:1032800001960E944108CE0101960E94630CCE0176
:1032900041960E94630CCE0109960E94630C85E161
:1032A0000E948A049093900480938F048091A704D5
:1032B00081110E944C0880E00E9459038C0180918A
:1032C000F4029091F502892B09F099C201301105A1
:1032D00009F095C281E00E94590340911D0150916F
:1032E0001E0160911F0170912001892B09F04AC2D3
:1032F000415051096109710977FD3BC240931D019D
:1033000050931E0160931F017093200181E00E9481
:10331000050A8091A804882319F080E00E94E4093E
:103320000E94B3056093F0027093F1028093F20261
:103330009093F30240911D0150911E0160911F0175
:1033400070912001CE0109960E94040D63EF71E097
:10335000CE0101960E94A40DBE01675F7F4FCE0192
:1033600001960E94930CBC01CE0141960E948A0DE9
:10337000CE0141960E944108CE0141960E94630C05
:10338000CE0101960E94630CCE0109960E94630C47
:103390001093F5020093F4022BEE34E04AE153E07F
:1033A00062E070E085E090E00E94151023EE34E0CA
:1033B00049E153E063E070E087E090E00E9415107F
:1033C0002BED34E048E153E064E070E089E090E008
:1033D0000E94151030E020E047E153E066E070E025
:1033E00080E190E00E94151030E020E046E153E0DB
:1033F00067E070E08EE090E00E94151030E020E081
:1034000045E153E068E070E08FE090E00E94151025
:1034100030E020E044E153E069E070E082E190E0D8
:103420000E94151030E020E043E153E06AE070E0D4
:1034300083E190E00E94151084E694E00E940D0B59
:103440006DA37EA38FA398A704EB10E0222371F055
:1034500008E611E0332351F00EE011E0442331F08F
:103460000FEF1FEF511102C00AE510E08091230118
:10347000909124018017910779F1B80180E00E94B2
:103480002B0A1093240100932301B801CE01099661
:103490000E94310D62E472E0CE0141960E94A40DBB
:1034A000BE01675F7F4FCE0141960E94930CBC0125
:1034B000CE0101960E948A0DCE0101960E9441081C
:1034C000CE0101960E94630CCE0141960E94630CCE
:1034D000CE0109960E94630C8DA104EB10E08823B5
:1034E00089F08EA108E611E0882361F08FA10EE03B
:1034F00011E0882339F088A50FEF1FEF811102C07A
:103500000AE510E080912101909122018017910736
:1035100079F1B80181E00E942B0A109322010093F7
:103520002101B801CE0109960E94310D68E472E0D4
:10353000CE0141960E94A40DBE01675F7F4FCE0170
:1035400041960E94930CBC01CE0101960E948A0D07
:10355000CE0101960E944108CE0101960E94630CA3
:10356000CE0141960E94630CCE0109960E94630C25
:103570008DE394E00E940D0B3A8F4B8F5C8F6D8F23
:103580007E8F8F8F98A342E153E065E070E0822F39
:103590000E948B0F41E153E06BE070E08A8D0E9446
:1035A0008B0F40E153E06CE070E08B8D0E948B0F3D
:1035B0004FE053E06DE070E08C8D0E948B0F4EE089
:1035C00053E06EE070E08D8D0E948B0F4DE053E074
:1035D0006FE070E08E8D0E948B0F4CE053E060E155
:1035E00070E08F8D0E948B0F4BE053E061E170E043
:1035F00088A10E948B0F86E194E00E940D0B298B1D
:103600003A8B4B8B5C8B6D8B7E8B8F8B988F4AE0CC
:1036100053E062E170E0822F0E948B0F49E053E09B
:1036200063E170E08A890E948B0F48E053E064E117
:1036300070E08B890E948B0F47E053E065E170E0FA
:103640008C890E948B0F46E053E066E170E08D8923
:103650000E948B0F45E053E067E170E08E890E9485
:103660008B0F44E053E068E170E08F890E948B0F7C
:1036700043E053E069E170E0888D0E948B0F8FEE8C
:1036800093E00E940D0B29873A874B875C876D87F3
:103690007E878F87988B42E053E06AE170E0822F4B
:1036A0000E948B0F41E053E06BE170E08A850E943D
:1036B0008B0F40E053E06CE170E08B850E948B0F34
:1036C0004FEF52E06DE170E08C850E948B0F4EEF62
:1036D00052E06EE170E08D850E948B0F4DEF52E05D
:1036E0006FE170E08E850E948B0F4CEF52E060E23C
:1036F00070E08F850E948B0F88EC93E00E940D0B89
:1037000029833A834B835C836D837E838F83988781
:103710004BEF52E061E270E0822F0E948B0F4AEF84
:1037200052E062E270E08A810E948B0F49EF52E022
:1037300063E270E08B810E948B0F48EF52E064E2FD
:1037400070E08C810E948B0F47EF52E065E270E0E1
:103750008D810E948B0F46EF52E066E270E08E8111
:103760000E948B0FE114F10409F455CD0E94000072
:103770004ECD80921D0190921E01A0921F01B09229
:103780002001C4CD4F5F5F4F6F4F7F4F44315105D4
:10379000610571055CF540931D0150931E01609316
:1037A0001F01709320018091A804823018F081E0FD
:1037B0000E94E40980E00E94050A0E94B30560931C
:1037C000F0027093F1028093F2029093F302409121
:1037D0001D0150911E0160911F0170912001CE01C9
:1037E00009960E94040D6EE172E0B2CD10921D01A7
:1037F00010921E0110921F0110922001D4CF409010
:10380000F0025090F1026090F2027090F30282E3B5
:10381000480E511C611C711C0E94B30546165706C8
:103820006806790608F0B4CD81E00E94050A80E0C0
:103830000E94050AADCDBB274A3031F4992322F40A
:10384000BDE2909581959F4F0C94581CBB272A3060
:1038500051F4992342F4BDE290958095709561955D
:103860007F4F8F4F9F4F0C94361CBB27FA01A62F1A
:103870006217710581059105330B30FB66F0AA27AD
:10388000660F771F881F991FAA1FA21710F0A21B8F
:1038900063953850A9F7A05DAA3308F0A95DA193FC
:1038A00036F7B111B1931082CA010C94711CBB2779
:1038B000FB015527AA27880F991FAA1FA41710F0EC
:1038C000A41B83955051B9F7A05DAA3308F0A95DF8
:1038D000A193009779F7B111B1931192CB010C9498
:1038E000711CDC01FC01672F71917723E1F732979E
:1038F00004C07C916D9370836291AE17BF07C8F3CB
:103900000895052E97FB1EF400940E94981C57FD05
:1039100007D00E94E21C07FC03D04EF40C94981CC4
:1039200050954095309521953F4F4F4F5F4F0895EB
:1039300090958095709561957F4F8F4F9F4F08951B
:103940000E94041DA59F900DB49F900DA49F800D13
:10395000911D112408952F923F924F925F926F9282
:103960007F928F929F92AF92BF92CF92DF92EF920F
:10397000FF920F931F93CF93DF93CDB7DEB7CA1B90
:10398000DB0B0FB6F894DEBF0FBECDBF09942A88BB
:10399000398848885F846E847D848C849B84AA8463
:1039A000B984C884DF80EE80FD800C811B81AA81F0
:1039B000B981CE0FD11D0FB6F894DEBF0FBECDBFBB
:1039C000ED010895A1E21A2EAA1BBB1BFD010DC03B
:1039D000AA1FBB1FEE1FFF1FA217B307E407F507BF
:1039E00020F0A21BB30BE40BF50B661F771F881F9B
:1039F000991F1A9469F760957095809590959B0131
:103A0000AC01BD01CF010895A29FB001B39FC001D9
:103A1000A39F700D811D1124911DB29F700D811DFA
:103A20001124911D089597FB072E16F4009407D0DA
:103A300077FD09D00E942D1D07FC05D03EF490951E
:103A400081959F4F0895709561957F4F0895EE0F72
:103A5000FF1F0590F491E02D0994AA1BBB1B51E1B7
:103A600007C0AA1FBB1FA617B70710F0A61BB70BEE
:103A7000881F991F5A95A9F780959095BC01CD0193
:103A800008950F931F93CF93DF938230910510F425
:103A900082E090E0E091F504F091F60430E020E05F
:103AA000B0E0A0E0309799F42115310509F44AC03F
:103AB000281B390B24303105D8F58A819B8161158B
:103AC000710589F1FB0193838283FE0111C040815E
:103AD00051810281138148175907E0F048175907AF
:103AE00099F4109761F012960C93129713961C9309
:103AF0003296CF01DF91CF911F910F9108950093DE
:103B0000F5041093F604F4CF2115310551F0421756
:103B1000530738F0A901DB019A01BD01DF01F8016B
:103B2000C1CFEF01F9CF9093F6048093F504CDCF88
:103B3000FE01E20FF31F81939193225031093983E3
:103B40002883D7CF2091F3043091F404232B41F440
:103B500020912701309128013093F4042093F3043D
:103B600020912501309126012115310541F42DB711
:103B70003EB74091290150912A01241B350BE09159
:103B8000F304F091F404E217F307A0F42E1B3F0BAB
:103B90002817390778F0AC014E5F5F4F24173507BF
:103BA00048F04E0F5F1F5093F4044093F304819349
:103BB00091939FCFF0E0E0E09CCFCF93DF9300970D
:103BC000E9F0FC01329713821282A091F504B091C2
:103BD000F604ED0130E020E01097A1F4208131815E
:103BE000820F931F2091F3043091F40428173907B2
:103BF00009F061C0F093F404E093F304DF91CF91F6
:103C00000895EA01CE17DF07E8F54A815B819E013E
:103C100041155105B1F7E901FB83EA8349915991B7
:103C2000C40FD51FEC17FD0761F4808191810296C6
:103C3000840F951FE90199838883828193819B83F7
:103C40008A83F0E0E0E012968D919C9113970097A3
:103C5000B9F52D913C911197CD010296820F931FDA
:103C60002091F3043091F4042817390739F630977E
:103C700051F51092F6041092F504B093F404A09359
:103C8000F304BCCFD383C28340815181840F951F3D
:103C9000C817D90761F44E5F5F4F88819981480F3B
:103CA000591F518340838A819B819383828321158D
:103CB000310509F0B0CFF093F604E093F5049ECF00
:103CC000FD01DC01C0CF13821282D7CFB0E0A0E0AB
:103CD000ECE6FEE10C94AD1C8C01009751F4CB0195
:103CE0000E94411D8C01C801CDB7DEB7E0E10C9404
:103CF000C91CFC01E60FF71F9C0122503109E21795
:103D0000F30708F49DC0D901CD91DC911197C61736
:103D1000D70798F0C530D10530F3CE010497861748
:103D2000970708F3C61BD70B2297C193D1936D93C6
:103D30007C93CF010E94DD1DD6CF5B01AC1ABD0A7A
:103D40004C018C0E9D1EA091F504B091F604512CEF
:103D5000412CF12CE12C109731F58091F3049091D6
:103D6000F4048815990509F05CC04616570608F05A
:103D700058C08091250190912601009741F48DB79C
:103D80009EB74091290150912A01841B950BE81799
:103D9000F90708F055C0F093F404E093F304F90137
:103DA00071836083A0CF8D919C91119712966C9036
:103DB000129713967C901397A815B90559F56C01C5
:103DC00042E0C40ED11CCA14DB0420F1AC014A1934
:103DD0005B09DA011296159780F062827382518333
:103DE0004083D9016D937C93E114F10471F0D70104
:103DF0001396FC93EE93129776CF22968C0F9D1F0D
:103E0000F90191838083F301EFCFF093F604E093FF
:103E1000F50469CF4816590608F42C017D01D30139
:103E20009ACFCB010E94411D7C01009749F0AE0161
:103E3000B8010E94231FC8010E94DD1D870153CFD6
:103E400010E000E050CFFB01DC0102C001900D92B8
:103E500041505040D8F70895FB01DC0101900D92CC
:0A3E60000020E1F70895F894FFCF69
:103E6A00BF05BF05BF05BF05BF0500C180810000B2
:103E7A0000FFFFFFFF00E1000000000000FFFFFF5E
:103E8A00FFFFFFFFFF0000F704800000000000B101
:103E9A00062D07EF06D406000000008B029D05AC34
:103EAA0002A102F302B102CF02000000007F065213
:103EBA0006AE0628064B063806290600000000EA68
:103ECA00070D0A00507265706172696E672050436F
:103EDA00463835373400427574746F6E20636861F2
:103EEA006E6765643A200020746F2076616C756590
:103EFA0020003D3D3D20436F6E74726F6C2050610F
:103F0A006E656C202D20426C61636B204F74746562
:103F1A007273203D3D3D003D3D3D3D3D3D3D3D3DB6
:103F2A003D204279204E656D272026205261632765
:103F3A00203D3D3D3D3D3D3D3D3D3D004E657720AB
:103F4A006261636B6C69676874206C6576656C2066
:103F5A003A2000526F7461727920656E636F6465EE
:103F6A007220436F756E746572436C6F636B576929
:103F7A0073652C20706F736974696F6E2000526FBD
:103F8A007461727920656E636F64657220436C6F29
:103F9A00636B576973652C20706F736974696F6EF0
:0E3FAA002000486174313D00486174323D00D2
:00000001FF
